{
  "address": "0xe7f1725E7734CE288F8367e1Bb143E90bb3F0512",
  "abi": [
    {
      "inputs": [],
      "name": "InvalidInitialization",
      "type": "error"
    },
    {
      "inputs": [],
      "name": "NotInitializing",
      "type": "error"
    },
    {
      "inputs": [
        {
          "internalType": "address",
          "name": "owner",
          "type": "address"
        }
      ],
      "name": "OwnableInvalidOwner",
      "type": "error"
    },
    {
      "inputs": [
        {
          "internalType": "address",
          "name": "account",
          "type": "address"
        }
      ],
      "name": "OwnableUnauthorizedAccount",
      "type": "error"
    },
    {
      "inputs": [],
      "name": "ReentrancyGuardReentrantCall",
      "type": "error"
    },
    {
      "anonymous": false,
      "inputs": [
        {
          "indexed": false,
          "internalType": "address",
          "name": "_fromAddres",
          "type": "address"
        },
        {
          "indexed": false,
          "internalType": "address",
          "name": "_toAddress",
          "type": "address"
        },
        {
          "indexed": false,
          "internalType": "uint256",
          "name": "_exchangeRate",
          "type": "uint256"
        },
        {
          "indexed": false,
          "internalType": "uint256",
          "name": "_exchangeFee",
          "type": "uint256"
        }
      ],
      "name": "ExchangeRateAndFee",
      "type": "event"
    },
    {
      "anonymous": false,
      "inputs": [
        {
          "indexed": false,
          "internalType": "uint64",
          "name": "version",
          "type": "uint64"
        }
      ],
      "name": "Initialized",
      "type": "event"
    },
    {
      "anonymous": false,
      "inputs": [
        {
          "indexed": true,
          "internalType": "address",
          "name": "previousOwner",
          "type": "address"
        },
        {
          "indexed": true,
          "internalType": "address",
          "name": "newOwner",
          "type": "address"
        }
      ],
      "name": "OwnershipTransferred",
      "type": "event"
    },
    {
      "anonymous": false,
      "inputs": [
        {
          "indexed": false,
          "internalType": "uint256",
          "name": "_requestId",
          "type": "uint256"
        }
      ],
      "name": "RequestApproved",
      "type": "event"
    },
    {
      "anonymous": false,
      "inputs": [
        {
          "indexed": false,
          "internalType": "uint256",
          "name": "_requestId",
          "type": "uint256"
        }
      ],
      "name": "RequestCancelled",
      "type": "event"
    },
    {
      "anonymous": false,
      "inputs": [
        {
          "indexed": false,
          "internalType": "uint256",
          "name": "_requestId",
          "type": "uint256"
        },
        {
          "indexed": false,
          "internalType": "address",
          "name": "_fromAddres",
          "type": "address"
        },
        {
          "indexed": false,
          "internalType": "address",
          "name": "_toAddress",
          "type": "address"
        },
        {
          "indexed": false,
          "internalType": "address",
          "name": "_fromToken",
          "type": "address"
        },
        {
          "indexed": false,
          "internalType": "address",
          "name": "_toToken",
          "type": "address"
        },
        {
          "indexed": false,
          "internalType": "uint256",
          "name": "amount",
          "type": "uint256"
        }
      ],
      "name": "RequestCreated",
      "type": "event"
    },
    {
      "anonymous": false,
      "inputs": [
        {
          "indexed": false,
          "internalType": "uint256",
          "name": "_requestId",
          "type": "uint256"
        }
      ],
      "name": "RequestRejected",
      "type": "event"
    },
    {
      "inputs": [],
      "name": "DECIMALS",
      "outputs": [
        {
          "internalType": "uint256",
          "name": "",
          "type": "uint256"
        }
      ],
      "stateMutability": "view",
      "type": "function"
    },
    {
      "inputs": [
        {
          "internalType": "uint256",
          "name": "_requestId",
          "type": "uint256"
        }
      ],
      "name": "approveRequest",
      "outputs": [],
      "stateMutability": "nonpayable",
      "type": "function"
    },
    {
      "inputs": [
        {
          "internalType": "uint256",
          "name": "_requestId",
          "type": "uint256"
        }
      ],
      "name": "cancelRequest",
      "outputs": [],
      "stateMutability": "nonpayable",
      "type": "function"
    },
    {
      "inputs": [
        {
          "internalType": "address",
          "name": "_toAddress",
          "type": "address"
        },
        {
          "internalType": "address",
          "name": "_fromToken",
          "type": "address"
        },
        {
          "internalType": "address",
          "name": "_toToken",
          "type": "address"
        },
        {
          "internalType": "uint256",
          "name": "_amount",
          "type": "uint256"
        }
      ],
      "name": "createRequest",
      "outputs": [],
      "stateMutability": "nonpayable",
      "type": "function"
    },
    {
      "inputs": [
        {
          "internalType": "address",
          "name": "_fromToken",
          "type": "address"
        },
        {
          "internalType": "address",
          "name": "_toToken",
          "type": "address"
        }
      ],
      "name": "getExchangeFee",
      "outputs": [
        {
          "internalType": "uint256",
          "name": "exchangeFee",
          "type": "uint256"
        }
      ],
      "stateMutability": "view",
      "type": "function"
    },
    {
      "inputs": [
        {
          "internalType": "address",
          "name": "_fromToken",
          "type": "address"
        },
        {
          "internalType": "address",
          "name": "_toToken",
          "type": "address"
        }
      ],
      "name": "getExchangeRate",
      "outputs": [
        {
          "internalType": "uint256",
          "name": "exchangeRate",
          "type": "uint256"
        }
      ],
      "stateMutability": "view",
      "type": "function"
    },
    {
      "inputs": [],
      "name": "getTreasury",
      "outputs": [
        {
          "internalType": "address",
          "name": "",
          "type": "address"
        }
      ],
      "stateMutability": "view",
      "type": "function"
    },
    {
      "inputs": [
        {
          "internalType": "address",
          "name": "_owner",
          "type": "address"
        },
        {
          "internalType": "address",
          "name": "_treasury",
          "type": "address"
        }
      ],
      "name": "initialize",
      "outputs": [],
      "stateMutability": "nonpayable",
      "type": "function"
    },
    {
      "inputs": [],
      "name": "owner",
      "outputs": [
        {
          "internalType": "address",
          "name": "",
          "type": "address"
        }
      ],
      "stateMutability": "view",
      "type": "function"
    },
    {
      "inputs": [
        {
          "internalType": "uint256",
          "name": "_requestId",
          "type": "uint256"
        }
      ],
      "name": "rejectRequest",
      "outputs": [],
      "stateMutability": "nonpayable",
      "type": "function"
    },
    {
      "inputs": [],
      "name": "renounceOwnership",
      "outputs": [],
      "stateMutability": "nonpayable",
      "type": "function"
    },
    {
      "inputs": [
        {
          "internalType": "address",
          "name": "_fromToken",
          "type": "address"
        },
        {
          "internalType": "address",
          "name": "_toToken",
          "type": "address"
        },
        {
          "internalType": "uint256",
          "name": "_exchangeRate",
          "type": "uint256"
        },
        {
          "internalType": "uint256",
          "name": "_exchangeFee",
          "type": "uint256"
        }
      ],
      "name": "setExchangeRateAndFee",
      "outputs": [],
      "stateMutability": "nonpayable",
      "type": "function"
    },
    {
      "inputs": [
        {
          "internalType": "address",
          "name": "newOwner",
          "type": "address"
        }
      ],
      "name": "transferOwnership",
      "outputs": [],
      "stateMutability": "nonpayable",
      "type": "function"
    }
  ],
  "transactionHash": "0x1b87c94d6a34af97656e08461b3c6f7d96e04d67ed5c8348f41f6127c01f72e2",
  "args": [],
  "numDeployments": 1,
  "solcInputHash": "3aa2f31fb9c4c39cdc0813ffc840a08b",
  "bytecode": "0x608060405234801561001057600080fd5b506121a0806100206000396000f3fe608060405234801561001057600080fd5b50600436106100cf5760003560e01c8063485cc9551161008c578063baaa61be11610066578063baaa61be146101d8578063d7d1bbdb14610208578063ed71262a14610224578063f2fde38b14610240576100cf565b8063485cc95514610194578063715018a6146101b05780638da5cb5b146101ba576100cf565b806302cd5bef146100d45780632b5d97a2146101045780632d7788db146101205780632e0f26251461013c5780633015394c1461015a5780633b19e84a14610176575b600080fd5b6100ee60048036038101906100e991906117b3565b61025c565b6040516100fb919061180c565b60405180910390f35b61011e60048036038101906101199190611853565b610288565b005b61013a600480360381019061013591906118ba565b610355565b005b61014461058a565b604051610151919061180c565b60405180910390f35b610174600480360381019061016f91906118ba565b61058f565b005b61017e6107c4565b60405161018b91906118f6565b60405180910390f35b6101ae60048036038101906101a991906117b3565b6107ed565b005b6101b8610a5d565b005b6101c2610a71565b6040516101cf91906118f6565b60405180910390f35b6101f260048036038101906101ed91906117b3565b610aa9565b6040516101ff919061180c565b60405180910390f35b610222600480360381019061021d91906118ba565b610ad5565b005b61023e60048036038101906102399190611911565b610f85565b005b61025a60048036038101906102559190611978565b6112f3565b005b6000806102698484611379565b9050600460008281526020019081526020016000205491505092915050565b6102906113af565b600082036102d3576040517f08c379a00000000000000000000000000000000000000000000000000000000081526004016102ca906119dc565b60405180910390fd5b60006102df8585611379565b90508260036000838152602001908152602001600020819055508160046000838152602001908152602001600020819055507faadb66a62dcb0cfd19fd29bbabd96cdbf736d61afa8691cd09a6a3764507aed38585858560405161034694939291906119fc565b60405180910390a15050505050565b61035d611436565b60006002600083815260200190815260200160002090503373ffffffffffffffffffffffffffffffffffffffff168160010160009054906101000a900473ffffffffffffffffffffffffffffffffffffffff1673ffffffffffffffffffffffffffffffffffffffff161480156104085750600060038111156103e2576103e1611a41565b5b8160060160009054906101000a900460ff16600381111561040657610405611a41565b5b145b610447576040517f08c379a000000000000000000000000000000000000000000000000000000000815260040161043e90611abc565b60405180910390fd5b60028160060160006101000a81548160ff0219169083600381111561046f5761046e611a41565b5b021790555060008160020160009054906101000a900473ffffffffffffffffffffffffffffffffffffffff1690508073ffffffffffffffffffffffffffffffffffffffff166323b872dd308460000160009054906101000a900473ffffffffffffffffffffffffffffffffffffffff1685600501546040518463ffffffff1660e01b815260040161050293929190611adc565b6020604051808303816000875af1158015610521573d6000803e3d6000fd5b505050506040513d601f19601f820116820180604052508101906105459190611b4b565b507f1fdac08e93f72ff55b24ebdf4152b7f56b98982fe9249639c1010cc52aebccd683604051610575919061180c565b60405180910390a1505061058761148d565b50565b600881565b610597611436565b60006002600083815260200190815260200160002090503373ffffffffffffffffffffffffffffffffffffffff168160000160009054906101000a900473ffffffffffffffffffffffffffffffffffffffff1673ffffffffffffffffffffffffffffffffffffffff1614801561064257506000600381111561061c5761061b611a41565b5b8160060160009054906101000a900460ff1660038111156106405761063f611a41565b5b145b610681576040517f08c379a000000000000000000000000000000000000000000000000000000000815260040161067890611abc565b60405180910390fd5b60038160060160006101000a81548160ff021916908360038111156106a9576106a8611a41565b5b021790555060008160020160009054906101000a900473ffffffffffffffffffffffffffffffffffffffff1690508073ffffffffffffffffffffffffffffffffffffffff166323b872dd308460000160009054906101000a900473ffffffffffffffffffffffffffffffffffffffff1685600501546040518463ffffffff1660e01b815260040161073c93929190611adc565b6020604051808303816000875af115801561075b573d6000803e3d6000fd5b505050506040513d601f19601f8201168201806040525081019061077f9190611b4b565b507fee243f878b7fc2f54e934ca33783d4395d42bc07612e2bd4b8e0e178639f7a28836040516107af919061180c565b60405180910390a150506107c161148d565b50565b60008060009054906101000a900473ffffffffffffffffffffffffffffffffffffffff16905090565b60006107f76114a6565b905060008160000160089054906101000a900460ff1615905060008260000160009054906101000a900467ffffffffffffffff1690506000808267ffffffffffffffff161480156108455750825b9050600060018367ffffffffffffffff1614801561087a575060003073ffffffffffffffffffffffffffffffffffffffff163b145b905081158015610888575080155b156108bf576040517ff92ee8a900000000000000000000000000000000000000000000000000000000815260040160405180910390fd5b60018560000160006101000a81548167ffffffffffffffff021916908367ffffffffffffffff160217905550831561090f5760018560000160086101000a81548160ff0219169083151502179055505b600073ffffffffffffffffffffffffffffffffffffffff168773ffffffffffffffffffffffffffffffffffffffff16141580156109795750600073ffffffffffffffffffffffffffffffffffffffff168673ffffffffffffffffffffffffffffffffffffffff1614155b6109b8576040517f08c379a00000000000000000000000000000000000000000000000000000000081526004016109af90611bc4565b60405180910390fd5b856000806101000a81548173ffffffffffffffffffffffffffffffffffffffff021916908373ffffffffffffffffffffffffffffffffffffffff1602179055508315610a545760008560000160086101000a81548160ff0219169083151502179055507fc7f505b2f371ae2175ee4913f4499e1f2633a7b5936321eed1cdaeb6115181d26001604051610a4b9190611c3d565b60405180910390a15b50505050505050565b610a656113af565b610a6f60006114ce565b565b600080610a7c6115a5565b90508060000160009054906101000a900473ffffffffffffffffffffffffffffffffffffffff1691505090565b600080610ab68484611379565b9050600360008281526020019081526020016000205491505092915050565b610add611436565b600060026000838152602001908152602001600020905060006003811115610b0857610b07611a41565b5b8160060160009054906101000a900460ff166003811115610b2c57610b2b611a41565b5b148015610b8857508060010160009054906101000a900473ffffffffffffffffffffffffffffffffffffffff1673ffffffffffffffffffffffffffffffffffffffff163373ffffffffffffffffffffffffffffffffffffffff16145b610bc7576040517f08c379a0000000000000000000000000000000000000000000000000000000008152600401610bbe90611ca4565b60405180910390fd5b60008160020160009054906101000a900473ffffffffffffffffffffffffffffffffffffffff16905060008260030160009054906101000a900473ffffffffffffffffffffffffffffffffffffffff1690506000610c6d8460020160009054906101000a900473ffffffffffffffffffffffffffffffffffffffff168560030160009054906101000a900473ffffffffffffffffffffffffffffffffffffffff1661025c565b9050600060026008610c7f9190611cf3565b600a610c8b9190611e5a565b828660040154610c9b9190611ea5565b610ca59190611f16565b9050600060026008610cb79190611cf3565b600a610cc39190611e5a565b838760050154610cd39190611ea5565b610cdd9190611f16565b90508473ffffffffffffffffffffffffffffffffffffffff166323b872dd308860010160009054906101000a900473ffffffffffffffffffffffffffffffffffffffff16848a60050154610d319190611f47565b6040518463ffffffff1660e01b8152600401610d4f93929190611adc565b6020604051808303816000875af1158015610d6e573d6000803e3d6000fd5b505050506040513d601f19601f82011682018060405250810190610d929190611b4b565b508373ffffffffffffffffffffffffffffffffffffffff166323b872dd8760010160009054906101000a900473ffffffffffffffffffffffffffffffffffffffff1630856040518463ffffffff1660e01b8152600401610df493929190611adc565b6020604051808303816000875af1158015610e13573d6000803e3d6000fd5b505050506040513d601f19601f82011682018060405250810190610e379190611b4b565b508373ffffffffffffffffffffffffffffffffffffffff166323b872dd8760010160009054906101000a900473ffffffffffffffffffffffffffffffffffffffff168860000160009054906101000a900473ffffffffffffffffffffffffffffffffffffffff16858a60040154610eae9190611f47565b6040518463ffffffff1660e01b8152600401610ecc93929190611adc565b6020604051808303816000875af1158015610eeb573d6000803e3d6000fd5b505050506040513d601f19601f82011682018060405250810190610f0f9190611b4b565b5060018660060160006101000a81548160ff02191690836003811115610f3857610f37611a41565b5b02179055507fbecbbd7543b68baaaf7e9c3fd12e4719f1f506f4253abef4a6573d0adf3a73ed87604051610f6c919061180c565b60405180910390a1505050505050610f8261148d565b50565b610f8d611436565b6000610f998484610aa9565b03610fd9576040517f08c379a0000000000000000000000000000000000000000000000000000000008152600401610fd090611fc7565b60405180910390fd5b60008390508073ffffffffffffffffffffffffffffffffffffffff166323b872dd3330856040518463ffffffff1660e01b815260040161101b93929190611adc565b6020604051808303816000875af115801561103a573d6000803e3d6000fd5b505050506040513d601f19601f8201168201806040525081019061105e9190611b4b565b506001600081548092919061107290611fe7565b91905055506000806110858686866115cd565b915091506040518060e001604052803373ffffffffffffffffffffffffffffffffffffffff1681526020018873ffffffffffffffffffffffffffffffffffffffff1681526020018773ffffffffffffffffffffffffffffffffffffffff1681526020018673ffffffffffffffffffffffffffffffffffffffff1681526020018381526020018281526020016000600381111561112457611123611a41565b5b81525060026000600154815260200190815260200160002060008201518160000160006101000a81548173ffffffffffffffffffffffffffffffffffffffff021916908373ffffffffffffffffffffffffffffffffffffffff16021790555060208201518160010160006101000a81548173ffffffffffffffffffffffffffffffffffffffff021916908373ffffffffffffffffffffffffffffffffffffffff16021790555060408201518160020160006101000a81548173ffffffffffffffffffffffffffffffffffffffff021916908373ffffffffffffffffffffffffffffffffffffffff16021790555060608201518160030160006101000a81548173ffffffffffffffffffffffffffffffffffffffff021916908373ffffffffffffffffffffffffffffffffffffffff1602179055506080820151816004015560a0820151816005015560c08201518160060160006101000a81548160ff0219169083600381111561129757611296611a41565b5b02179055509050507f0a40f07db67efcca64019d6cd2ef89bf3a05e93d3c418cc2fc489d90d15394a260015433898989896040516112da9695949392919061202f565b60405180910390a15050506112ed61148d565b50505050565b6112fb6113af565b600073ffffffffffffffffffffffffffffffffffffffff168173ffffffffffffffffffffffffffffffffffffffff160361136d5760006040517f1e4fbdf700000000000000000000000000000000000000000000000000000000815260040161136491906118f6565b60405180910390fd5b611376816114ce565b50565b6000828260405160200161138e9291906120d8565b6040516020818303038152906040528051906020012060001c905092915050565b6113b7611720565b73ffffffffffffffffffffffffffffffffffffffff166113d5610a71565b73ffffffffffffffffffffffffffffffffffffffff1614611434576113f8611720565b6040517f118cdaa700000000000000000000000000000000000000000000000000000000815260040161142b91906118f6565b60405180910390fd5b565b6000611440611728565b90506002816000015403611480576040517f3ee5aeb500000000000000000000000000000000000000000000000000000000815260040160405180910390fd5b6002816000018190555050565b6000611497611728565b90506001816000018190555050565b60007ff0c57e16840df040f15088dc2f81fe391c3923bec73e23a9662efc9c229c6a00905090565b60006114d86115a5565b905060008160000160009054906101000a900473ffffffffffffffffffffffffffffffffffffffff169050828260000160006101000a81548173ffffffffffffffffffffffffffffffffffffffff021916908373ffffffffffffffffffffffffffffffffffffffff1602179055508273ffffffffffffffffffffffffffffffffffffffff168173ffffffffffffffffffffffffffffffffffffffff167f8be0079c531659141344cd1fd0a4f28419497f9722a3daafe3b4186f6b6457e060405160405180910390a3505050565b60007f9016d09d72d40fdae2fd8ceac6b6234c7706214fd39c1cd1e609a0528c199300905090565b6000806000859050600085905060008273ffffffffffffffffffffffffffffffffffffffff1663313ce5676040518163ffffffff1660e01b8152600401602060405180830381865afa158015611627573d6000803e3d6000fd5b505050506040513d601f19601f8201168201806040525081019061164b919061213d565b60ff16905060008273ffffffffffffffffffffffffffffffffffffffff1663313ce5676040518163ffffffff1660e01b8152600401602060405180830381865afa15801561169d573d6000803e3d6000fd5b505050506040513d601f19601f820116820180604052508101906116c1919061213d565b60ff16905060006116d28a8a610aa9565b9050828260086116e29190611cf3565b6116ec9190611f47565b600a6116f89190611e5a565b81896117049190611ea5565b61170e9190611f16565b96508795505050505050935093915050565b600033905090565b60007f9b779b17422d0df92223018b32b4d1fa46e071723d6817e2486d003becc55f00905090565b600080fd5b600073ffffffffffffffffffffffffffffffffffffffff82169050919050565b600061178082611755565b9050919050565b61179081611775565b811461179b57600080fd5b50565b6000813590506117ad81611787565b92915050565b600080604083850312156117ca576117c9611750565b5b60006117d88582860161179e565b92505060206117e98582860161179e565b9150509250929050565b6000819050919050565b611806816117f3565b82525050565b600060208201905061182160008301846117fd565b92915050565b611830816117f3565b811461183b57600080fd5b50565b60008135905061184d81611827565b92915050565b6000806000806080858703121561186d5761186c611750565b5b600061187b8782880161179e565b945050602061188c8782880161179e565b935050604061189d8782880161183e565b92505060606118ae8782880161183e565b91505092959194509250565b6000602082840312156118d0576118cf611750565b5b60006118de8482850161183e565b91505092915050565b6118f081611775565b82525050565b600060208201905061190b60008301846118e7565b92915050565b6000806000806080858703121561192b5761192a611750565b5b60006119398782880161179e565b945050602061194a8782880161179e565b935050604061195b8782880161179e565b925050606061196c8782880161183e565b91505092959194509250565b60006020828403121561198e5761198d611750565b5b600061199c8482850161179e565b91505092915050565b600082825260208201905092915050565b50565b60006119c66000836119a5565b91506119d1826119b6565b600082019050919050565b600060208201905081810360008301526119f5816119b9565b9050919050565b6000608082019050611a1160008301876118e7565b611a1e60208301866118e7565b611a2b60408301856117fd565b611a3860608301846117fd565b95945050505050565b7f4e487b7100000000000000000000000000000000000000000000000000000000600052602160045260246000fd5b7f4d7573742062652063726561746f720000000000000000000000000000000000600082015250565b6000611aa6600f836119a5565b9150611ab182611a70565b602082019050919050565b60006020820190508181036000830152611ad581611a99565b9050919050565b6000606082019050611af160008301866118e7565b611afe60208301856118e7565b611b0b60408301846117fd565b949350505050565b60008115159050919050565b611b2881611b13565b8114611b3357600080fd5b50565b600081519050611b4581611b1f565b92915050565b600060208284031215611b6157611b60611750565b5b6000611b6f84828501611b36565b91505092915050565b7f506172616d732077726f6e670000000000000000000000000000000000000000600082015250565b6000611bae600c836119a5565b9150611bb982611b78565b602082019050919050565b60006020820190508181036000830152611bdd81611ba1565b9050919050565b6000819050919050565b600067ffffffffffffffff82169050919050565b6000819050919050565b6000611c27611c22611c1d84611be4565b611c02565b611bee565b9050919050565b611c3781611c0c565b82525050565b6000602082019050611c526000830184611c2e565b92915050565b7f43616e6e6f7420617070726f7665000000000000000000000000000000000000600082015250565b6000611c8e600e836119a5565b9150611c9982611c58565b602082019050919050565b60006020820190508181036000830152611cbd81611c81565b9050919050565b7f4e487b7100000000000000000000000000000000000000000000000000000000600052601160045260246000fd5b6000611cfe826117f3565b9150611d09836117f3565b9250828201905080821115611d2157611d20611cc4565b5b92915050565b60008160011c9050919050565b6000808291508390505b6001851115611d7e57808604811115611d5a57611d59611cc4565b5b6001851615611d695780820291505b8081029050611d7785611d27565b9450611d3e565b94509492505050565b600082611d975760019050611e53565b81611da55760009050611e53565b8160018114611dbb5760028114611dc557611df4565b6001915050611e53565b60ff841115611dd757611dd6611cc4565b5b8360020a915084821115611dee57611ded611cc4565b5b50611e53565b5060208310610133831016604e8410600b8410161715611e295782820a905083811115611e2457611e23611cc4565b5b611e53565b611e368484846001611d34565b92509050818404811115611e4d57611e4c611cc4565b5b81810290505b9392505050565b6000611e65826117f3565b9150611e70836117f3565b9250611e9d7fffffffffffffffffffffffffffffffffffffffffffffffffffffffffffffffff8484611d87565b905092915050565b6000611eb0826117f3565b9150611ebb836117f3565b9250828202611ec9816117f3565b91508282048414831517611ee057611edf611cc4565b5b5092915050565b7f4e487b7100000000000000000000000000000000000000000000000000000000600052601260045260246000fd5b6000611f21826117f3565b9150611f2c836117f3565b925082611f3c57611f3b611ee7565b5b828204905092915050565b6000611f52826117f3565b9150611f5d836117f3565b9250828203905081811115611f7557611f74611cc4565b5b92915050565b7f546f6b656e206e6f7420737570706f7274000000000000000000000000000000600082015250565b6000611fb16011836119a5565b9150611fbc82611f7b565b602082019050919050565b60006020820190508181036000830152611fe081611fa4565b9050919050565b6000611ff2826117f3565b91507fffffffffffffffffffffffffffffffffffffffffffffffffffffffffffffffff820361202457612023611cc4565b5b600182019050919050565b600060c08201905061204460008301896117fd565b61205160208301886118e7565b61205e60408301876118e7565b61206b60608301866118e7565b61207860808301856118e7565b61208560a08301846117fd565b979650505050505050565b60008160601b9050919050565b60006120a882612090565b9050919050565b60006120ba8261209d565b9050919050565b6120d26120cd82611775565b6120af565b82525050565b60006120e482856120c1565b6014820191506120f482846120c1565b6014820191508190509392505050565b600060ff82169050919050565b61211a81612104565b811461212557600080fd5b50565b60008151905061213781612111565b92915050565b60006020828403121561215357612152611750565b5b600061216184828501612128565b9150509291505056fea2646970667358221220cf0eb89945cf614b7a19e3650e9ebc5ac3c9407cc168109836956277f0abfca464736f6c63430008180033",
  "devdoc": {
    "errors": {
      "InvalidInitialization()": [
        {
          "details": "The contract is already initialized."
        }
      ],
      "NotInitializing()": [
        {
          "details": "The contract is not initializing."
        }
      ],
      "OwnableInvalidOwner(address)": [
        {
          "details": "The owner is not a valid owner account. (eg. `address(0)`)"
        }
      ],
      "OwnableUnauthorizedAccount(address)": [
        {
          "details": "The caller account is not authorized to perform an operation."
        }
      ],
      "ReentrancyGuardReentrantCall()": [
        {
          "details": "Unauthorized reentrant call."
        }
      ]
    },
    "events": {
      "Initialized(uint64)": {
        "details": "Triggered when the contract has been initialized or reinitialized."
      }
    },
    "kind": "dev",
    "methods": {
      "owner()": {
        "details": "Returns the address of the current owner."
      },
      "renounceOwnership()": {
        "details": "Leaves the contract without owner. It will not be possible to call `onlyOwner` functions. Can only be called by the current owner. NOTE: Renouncing ownership will leave the contract without an owner, thereby disabling any functionality that is only available to the owner."
      },
      "transferOwnership(address)": {
        "details": "Transfers ownership of the contract to a new account (`newOwner`). Can only be called by the current owner."
      }
    },
    "version": 1
  },
  "userdoc": {
    "kind": "user",
    "methods": {},
    "version": 1
  },
  "storageLayout": {
    "storage": [
      {
        "astId": 1441,
        "contract": "contracts/Swapper.sol:Swapper",
        "label": "treasury",
        "offset": 0,
        "slot": "0",
        "type": "t_address"
      },
      {
        "astId": 1443,
        "contract": "contracts/Swapper.sol:Swapper",
        "label": "requestCount",
        "offset": 0,
        "slot": "1",
        "type": "t_uint256"
      },
      {
        "astId": 1448,
        "contract": "contracts/Swapper.sol:Swapper",
        "label": "requests",
        "offset": 0,
        "slot": "2",
        "type": "t_mapping(t_uint256,t_struct(Request)1434_storage)"
      },
      {
        "astId": 1452,
        "contract": "contracts/Swapper.sol:Swapper",
        "label": "exchangeRates",
        "offset": 0,
        "slot": "3",
        "type": "t_mapping(t_uint256,t_uint256)"
      },
      {
        "astId": 1456,
        "contract": "contracts/Swapper.sol:Swapper",
        "label": "exchangeFees",
        "offset": 0,
        "slot": "4",
        "type": "t_mapping(t_uint256,t_uint256)"
      }
    ],
    "types": {
      "t_address": {
        "encoding": "inplace",
        "label": "address",
        "numberOfBytes": "20"
      },
      "t_enum(Status)1439": {
        "encoding": "inplace",
        "label": "enum Swapper.Status",
        "numberOfBytes": "1"
      },
      "t_mapping(t_uint256,t_struct(Request)1434_storage)": {
        "encoding": "mapping",
        "key": "t_uint256",
        "label": "mapping(uint256 => struct Swapper.Request)",
        "numberOfBytes": "32",
        "value": "t_struct(Request)1434_storage"
      },
      "t_mapping(t_uint256,t_uint256)": {
        "encoding": "mapping",
        "key": "t_uint256",
        "label": "mapping(uint256 => uint256)",
        "numberOfBytes": "32",
        "value": "t_uint256"
      },
      "t_struct(Request)1434_storage": {
        "encoding": "inplace",
        "label": "struct Swapper.Request",
        "members": [
          {
            "astId": 1420,
            "contract": "contracts/Swapper.sol:Swapper",
            "label": "fromAddress",
            "offset": 0,
            "slot": "0",
            "type": "t_address"
          },
          {
            "astId": 1422,
            "contract": "contracts/Swapper.sol:Swapper",
            "label": "toAddress",
            "offset": 0,
            "slot": "1",
            "type": "t_address"
          },
          {
            "astId": 1424,
            "contract": "contracts/Swapper.sol:Swapper",
            "label": "fromToken",
            "offset": 0,
            "slot": "2",
            "type": "t_address"
          },
          {
            "astId": 1426,
            "contract": "contracts/Swapper.sol:Swapper",
            "label": "toToken",
            "offset": 0,
            "slot": "3",
            "type": "t_address"
          },
          {
            "astId": 1428,
            "contract": "contracts/Swapper.sol:Swapper",
            "label": "fromReceive",
            "offset": 0,
            "slot": "4",
            "type": "t_uint256"
          },
          {
            "astId": 1430,
            "contract": "contracts/Swapper.sol:Swapper",
            "label": "toReceive",
            "offset": 0,
            "slot": "5",
            "type": "t_uint256"
          },
          {
            "astId": 1433,
            "contract": "contracts/Swapper.sol:Swapper",
            "label": "status",
            "offset": 0,
            "slot": "6",
            "type": "t_enum(Status)1439"
          }
        ],
        "numberOfBytes": "224"
      },
      "t_uint256": {
        "encoding": "inplace",
        "label": "uint256",
        "numberOfBytes": "32"
      }
    }
  }
}