{
  "address": "0x4cb2404d7FddbD96D6D6d739c9835D50137C5095",
  "abi": [
    {
      "inputs": [],
      "stateMutability": "nonpayable",
      "type": "constructor"
    },
    {
      "inputs": [
        {
          "internalType": "address",
          "name": "target",
          "type": "address"
        }
      ],
      "name": "AddressEmptyCode",
      "type": "error"
    },
    {
      "inputs": [
        {
          "internalType": "address",
          "name": "account",
          "type": "address"
        }
      ],
      "name": "AddressInsufficientBalance",
      "type": "error"
    },
    {
      "inputs": [],
      "name": "FailedInnerCall",
      "type": "error"
    },
    {
      "inputs": [],
      "name": "InvalidInitialization",
      "type": "error"
    },
    {
      "inputs": [],
      "name": "NotInitializing",
      "type": "error"
    },
    {
      "inputs": [
        {
          "internalType": "address",
          "name": "owner",
          "type": "address"
        }
      ],
      "name": "OwnableInvalidOwner",
      "type": "error"
    },
    {
      "inputs": [
        {
          "internalType": "address",
          "name": "account",
          "type": "address"
        }
      ],
      "name": "OwnableUnauthorizedAccount",
      "type": "error"
    },
    {
      "inputs": [],
      "name": "ReentrancyGuardReentrantCall",
      "type": "error"
    },
    {
      "inputs": [
        {
          "internalType": "address",
          "name": "token",
          "type": "address"
        }
      ],
      "name": "SafeERC20FailedOperation",
      "type": "error"
    },
    {
      "anonymous": false,
      "inputs": [
        {
          "indexed": false,
          "internalType": "uint256",
          "name": "_fee",
          "type": "uint256"
        }
      ],
      "name": "FeeUpdated",
      "type": "event"
    },
    {
      "anonymous": false,
      "inputs": [
        {
          "indexed": false,
          "internalType": "uint64",
          "name": "version",
          "type": "uint64"
        }
      ],
      "name": "Initialized",
      "type": "event"
    },
    {
      "anonymous": false,
      "inputs": [
        {
          "indexed": true,
          "internalType": "address",
          "name": "previousOwner",
          "type": "address"
        },
        {
          "indexed": true,
          "internalType": "address",
          "name": "newOwner",
          "type": "address"
        }
      ],
      "name": "OwnershipTransferred",
      "type": "event"
    },
    {
      "anonymous": false,
      "inputs": [
        {
          "indexed": false,
          "internalType": "uint256",
          "name": "_requestId",
          "type": "uint256"
        }
      ],
      "name": "RequestApproved",
      "type": "event"
    },
    {
      "anonymous": false,
      "inputs": [
        {
          "indexed": false,
          "internalType": "uint256",
          "name": "_requestId",
          "type": "uint256"
        }
      ],
      "name": "RequestCancelled",
      "type": "event"
    },
    {
      "anonymous": false,
      "inputs": [
        {
          "indexed": false,
          "internalType": "uint256",
          "name": "_requestId",
          "type": "uint256"
        },
        {
          "indexed": false,
          "internalType": "address",
          "name": "_fromAddres",
          "type": "address"
        },
        {
          "indexed": false,
          "internalType": "address",
          "name": "_toAddress",
          "type": "address"
        },
        {
          "indexed": false,
          "internalType": "address",
          "name": "_fromToken",
          "type": "address"
        },
        {
          "indexed": false,
          "internalType": "address",
          "name": "_toToken",
          "type": "address"
        },
        {
          "indexed": false,
          "internalType": "uint256",
          "name": "_fromAmount",
          "type": "uint256"
        },
        {
          "indexed": false,
          "internalType": "uint256",
          "name": "_toAmount",
          "type": "uint256"
        }
      ],
      "name": "RequestCreated",
      "type": "event"
    },
    {
      "anonymous": false,
      "inputs": [
        {
          "indexed": false,
          "internalType": "uint256",
          "name": "_requestId",
          "type": "uint256"
        }
      ],
      "name": "RequestRejected",
      "type": "event"
    },
    {
      "anonymous": false,
      "inputs": [
        {
          "indexed": false,
          "internalType": "address",
          "name": "_treasury",
          "type": "address"
        }
      ],
      "name": "TreasuryUpdated",
      "type": "event"
    },
    {
      "stateMutability": "payable",
      "type": "fallback"
    },
    {
      "inputs": [
        {
          "internalType": "uint256",
          "name": "_requestId",
          "type": "uint256"
        }
      ],
      "name": "approveRequest",
      "outputs": [],
      "stateMutability": "nonpayable",
      "type": "function"
    },
    {
      "inputs": [
        {
          "internalType": "uint256",
          "name": "_requestId",
          "type": "uint256"
        }
      ],
      "name": "cancelRequest",
      "outputs": [],
      "stateMutability": "nonpayable",
      "type": "function"
    },
    {
      "inputs": [
        {
          "internalType": "address",
          "name": "_toAddress",
          "type": "address"
        },
        {
          "internalType": "address",
          "name": "_fromToken",
          "type": "address"
        },
        {
          "internalType": "address",
          "name": "_toToken",
          "type": "address"
        },
        {
          "internalType": "uint256",
          "name": "_fromAmount",
          "type": "uint256"
        },
        {
          "internalType": "uint256",
          "name": "_toAmount",
          "type": "uint256"
        }
      ],
      "name": "createRequest",
      "outputs": [],
      "stateMutability": "nonpayable",
      "type": "function"
    },
    {
      "inputs": [],
      "name": "fee",
      "outputs": [
        {
          "internalType": "uint8",
          "name": "",
          "type": "uint8"
        }
      ],
      "stateMutability": "view",
      "type": "function"
    },
    {
      "inputs": [
        {
          "internalType": "address",
          "name": "_owner",
          "type": "address"
        },
        {
          "internalType": "address",
          "name": "_treasury",
          "type": "address"
        }
      ],
      "name": "initialize",
      "outputs": [],
      "stateMutability": "nonpayable",
      "type": "function"
    },
    {
      "inputs": [],
      "name": "owner",
      "outputs": [
        {
          "internalType": "address",
          "name": "",
          "type": "address"
        }
      ],
      "stateMutability": "view",
      "type": "function"
    },
    {
      "inputs": [
        {
          "internalType": "uint256",
          "name": "_requestId",
          "type": "uint256"
        }
      ],
      "name": "rejectRequest",
      "outputs": [],
      "stateMutability": "nonpayable",
      "type": "function"
    },
    {
      "inputs": [],
      "name": "renounceOwnership",
      "outputs": [],
      "stateMutability": "nonpayable",
      "type": "function"
    },
    {
      "inputs": [
        {
          "internalType": "uint256",
          "name": "",
          "type": "uint256"
        }
      ],
      "name": "requests",
      "outputs": [
        {
          "internalType": "address",
          "name": "fromAddress",
          "type": "address"
        },
        {
          "internalType": "address",
          "name": "toAddress",
          "type": "address"
        },
        {
          "internalType": "address",
          "name": "fromToken",
          "type": "address"
        },
        {
          "internalType": "address",
          "name": "toToken",
          "type": "address"
        },
        {
          "internalType": "uint256",
          "name": "fromAmount",
          "type": "uint256"
        },
        {
          "internalType": "uint256",
          "name": "toAmount",
          "type": "uint256"
        },
        {
          "internalType": "enum Swapper.Status",
          "name": "status",
          "type": "uint8"
        }
      ],
      "stateMutability": "view",
      "type": "function"
    },
    {
      "inputs": [
        {
          "internalType": "uint8",
          "name": "_fee",
          "type": "uint8"
        }
      ],
      "name": "setFee",
      "outputs": [],
      "stateMutability": "nonpayable",
      "type": "function"
    },
    {
      "inputs": [
        {
          "internalType": "address",
          "name": "newOwner",
          "type": "address"
        }
      ],
      "name": "transferOwnership",
      "outputs": [],
      "stateMutability": "nonpayable",
      "type": "function"
    },
    {
      "inputs": [],
      "name": "treasury",
      "outputs": [
        {
          "internalType": "address",
          "name": "",
          "type": "address"
        }
      ],
      "stateMutability": "view",
      "type": "function"
    },
    {
      "inputs": [
        {
          "internalType": "address",
          "name": "_treasury",
          "type": "address"
        }
      ],
      "name": "updateTreasury",
      "outputs": [],
      "stateMutability": "nonpayable",
      "type": "function"
    },
    {
      "stateMutability": "payable",
      "type": "receive"
    }
  ],
  "transactionHash": "0x3e512836774903a134cf47e59d0be88c826b4c73c6e60f01150dc880ec9d6a49",
  "args": [],
  "numDeployments": 1,
  "solcInputHash": "374173fcf6f1426b5ddc4facb8b64347",
  "bytecode": "0x60806040523480156200001157600080fd5b50620000226200002860201b60201c565b6200019c565b60006200003a6200013260201b60201c565b90508060000160089054906101000a900460ff161562000086576040517ff92ee8a900000000000000000000000000000000000000000000000000000000815260040160405180910390fd5b67ffffffffffffffff80168160000160009054906101000a900467ffffffffffffffff1667ffffffffffffffff16146200012f5767ffffffffffffffff8160000160006101000a81548167ffffffffffffffff021916908367ffffffffffffffff1602179055507fc7f505b2f371ae2175ee4913f4499e1f2633a7b5936321eed1cdaeb6115181d267ffffffffffffffff6040516200012691906200017f565b60405180910390a15b50565b60007ff0c57e16840df040f15088dc2f81fe391c3923bec73e23a9662efc9c229c6a00905090565b600067ffffffffffffffff82169050919050565b62000179816200015a565b82525050565b60006020820190506200019660008301846200016e565b92915050565b61257080620001ac6000396000f3fe6080604052600436106100c65760003560e01c80637f51bb1f1161007f578063cb122a0911610059578063cb122a0914610252578063d7d1bbdb1461027b578063ddca3f43146102a4578063f2fde38b146102cf576100d0565b80637f51bb1f146101bb57806381d12c58146101e45780638da5cb5b14610227576100d0565b80632d7788db146100d55780633015394c146100fe578063346677c014610127578063485cc9551461015057806361d027b314610179578063715018a6146101a4576100d0565b366100d057600080fd5b600080fd5b3480156100e157600080fd5b506100fc60048036038101906100f79190611b66565b6102f8565b005b34801561010a57600080fd5b5061012560048036038101906101209190611b66565b6104d7565b005b34801561013357600080fd5b5061014e60048036038101906101499190611bf1565b6106b6565b005b34801561015c57600080fd5b5061017760048036038101906101729190611c6c565b610ac6565b005b34801561018557600080fd5b5061018e610d78565b60405161019b9190611cbb565b60405180910390f35b3480156101b057600080fd5b506101b9610d9c565b005b3480156101c757600080fd5b506101e260048036038101906101dd9190611cd6565b610db0565b005b3480156101f057600080fd5b5061020b60048036038101906102069190611b66565b610ea1565b60405161021e9796959493929190611d89565b60405180910390f35b34801561023357600080fd5b5061023c610f70565b6040516102499190611cbb565b60405180910390f35b34801561025e57600080fd5b5061027960048036038101906102749190611e31565b610fa8565b005b34801561028757600080fd5b506102a2600480360381019061029d9190611b66565b61104c565b005b3480156102b057600080fd5b506102b96113fb565b6040516102c69190611e6d565b60405180910390f35b3480156102db57600080fd5b506102f660048036038101906102f19190611cd6565b61140e565b005b610300611494565b60006002600083815260200190815260200160002090503373ffffffffffffffffffffffffffffffffffffffff168160010160009054906101000a900473ffffffffffffffffffffffffffffffffffffffff1673ffffffffffffffffffffffffffffffffffffffff161480156103ab57506000600381111561038557610384611d12565b5b8160060160009054906101000a900460ff1660038111156103a9576103a8611d12565b5b145b6103ea576040517f08c379a00000000000000000000000000000000000000000000000000000000081526004016103e190611ee5565b60405180910390fd5b60028160060160006101000a81548160ff0219169083600381111561041257610411611d12565b5b021790555060008160020160009054906101000a900473ffffffffffffffffffffffffffffffffffffffff1690506104938260000160009054906101000a900473ffffffffffffffffffffffffffffffffffffffff1683600401548373ffffffffffffffffffffffffffffffffffffffff166114eb9092919063ffffffff16565b7f1fdac08e93f72ff55b24ebdf4152b7f56b98982fe9249639c1010cc52aebccd6836040516104c29190611f05565b60405180910390a150506104d461156a565b50565b6104df611494565b60006002600083815260200190815260200160002090503373ffffffffffffffffffffffffffffffffffffffff168160000160009054906101000a900473ffffffffffffffffffffffffffffffffffffffff1673ffffffffffffffffffffffffffffffffffffffff1614801561058a57506000600381111561056457610563611d12565b5b8160060160009054906101000a900460ff16600381111561058857610587611d12565b5b145b6105c9576040517f08c379a00000000000000000000000000000000000000000000000000000000081526004016105c090611f6c565b60405180910390fd5b60038160060160006101000a81548160ff021916908360038111156105f1576105f0611d12565b5b021790555060008160020160009054906101000a900473ffffffffffffffffffffffffffffffffffffffff1690506106728260000160009054906101000a900473ffffffffffffffffffffffffffffffffffffffff1683600401548373ffffffffffffffffffffffffffffffffffffffff166114eb9092919063ffffffff16565b7fee243f878b7fc2f54e934ca33783d4395d42bc07612e2bd4b8e0e178639f7a28836040516106a19190611f05565b60405180910390a150506106b361156a565b50565b6106be611494565b84600073ffffffffffffffffffffffffffffffffffffffff168173ffffffffffffffffffffffffffffffffffffffff160361072e576040517f08c379a000000000000000000000000000000000000000000000000000000000815260040161072590611fd8565b60405180910390fd5b84600073ffffffffffffffffffffffffffffffffffffffff168173ffffffffffffffffffffffffffffffffffffffff160361079e576040517f08c379a000000000000000000000000000000000000000000000000000000000815260040161079590611fd8565b60405180910390fd5b84600073ffffffffffffffffffffffffffffffffffffffff168173ffffffffffffffffffffffffffffffffffffffff160361080e576040517f08c379a000000000000000000000000000000000000000000000000000000000815260040161080590611fd8565b60405180910390fd5b60008790506108403330888473ffffffffffffffffffffffffffffffffffffffff16611583909392919063ffffffff16565b6001600081548092919061085390612027565b91905055506040518060e001604052803373ffffffffffffffffffffffffffffffffffffffff1681526020018a73ffffffffffffffffffffffffffffffffffffffff1681526020018973ffffffffffffffffffffffffffffffffffffffff1681526020018873ffffffffffffffffffffffffffffffffffffffff168152602001878152602001868152602001600060038111156108f3576108f2611d12565b5b81525060026000600154815260200190815260200160002060008201518160000160006101000a81548173ffffffffffffffffffffffffffffffffffffffff021916908373ffffffffffffffffffffffffffffffffffffffff16021790555060208201518160010160006101000a81548173ffffffffffffffffffffffffffffffffffffffff021916908373ffffffffffffffffffffffffffffffffffffffff16021790555060408201518160020160006101000a81548173ffffffffffffffffffffffffffffffffffffffff021916908373ffffffffffffffffffffffffffffffffffffffff16021790555060608201518160030160006101000a81548173ffffffffffffffffffffffffffffffffffffffff021916908373ffffffffffffffffffffffffffffffffffffffff1602179055506080820151816004015560a0820151816005015560c08201518160060160006101000a81548160ff02191690836003811115610a6657610a65611d12565b5b02179055509050507f51388e8e09131439081fe50956bed8ef26ebcd066b89356a02dc98b999dfd02f600154338b8b8b8b8b604051610aab979695949392919061206f565b60405180910390a150505050610abf61156a565b5050505050565b6000610ad0611605565b905060008160000160089054906101000a900460ff1615905060008260000160009054906101000a900467ffffffffffffffff1690506000808267ffffffffffffffff16148015610b1e5750825b9050600060018367ffffffffffffffff16148015610b53575060003073ffffffffffffffffffffffffffffffffffffffff163b145b905081158015610b61575080155b15610b98576040517ff92ee8a900000000000000000000000000000000000000000000000000000000815260040160405180910390fd5b60018560000160006101000a81548167ffffffffffffffff021916908367ffffffffffffffff1602179055508315610be85760018560000160086101000a81548160ff0219169083151502179055505b86600073ffffffffffffffffffffffffffffffffffffffff168173ffffffffffffffffffffffffffffffffffffffff1603610c58576040517f08c379a0000000000000000000000000000000000000000000000000000000008152600401610c4f90611fd8565b60405180910390fd5b86600073ffffffffffffffffffffffffffffffffffffffff168173ffffffffffffffffffffffffffffffffffffffff1603610cc8576040517f08c379a0000000000000000000000000000000000000000000000000000000008152600401610cbf90611fd8565b60405180910390fd5b876000806101000a81548173ffffffffffffffffffffffffffffffffffffffff021916908373ffffffffffffffffffffffffffffffffffffffff160217905550610d118961162d565b50508315610d6f5760008560000160086101000a81548160ff0219169083151502179055507fc7f505b2f371ae2175ee4913f4499e1f2633a7b5936321eed1cdaeb6115181d26001604051610d669190612137565b60405180910390a15b50505050505050565b60008054906101000a900473ffffffffffffffffffffffffffffffffffffffff1681565b610da4611641565b610dae60006116c8565b565b610db8611641565b600073ffffffffffffffffffffffffffffffffffffffff168173ffffffffffffffffffffffffffffffffffffffff1603610e27576040517f08c379a0000000000000000000000000000000000000000000000000000000008152600401610e1e9061219e565b60405180910390fd5b806000806101000a81548173ffffffffffffffffffffffffffffffffffffffff021916908373ffffffffffffffffffffffffffffffffffffffff1602179055507f7dae230f18360d76a040c81f050aa14eb9d6dc7901b20fc5d855e2a20fe814d181604051610e969190611cbb565b60405180910390a150565b60026020528060005260406000206000915090508060000160009054906101000a900473ffffffffffffffffffffffffffffffffffffffff16908060010160009054906101000a900473ffffffffffffffffffffffffffffffffffffffff16908060020160009054906101000a900473ffffffffffffffffffffffffffffffffffffffff16908060030160009054906101000a900473ffffffffffffffffffffffffffffffffffffffff16908060040154908060050154908060060160009054906101000a900460ff16905087565b600080610f7b61179f565b90508060000160009054906101000a900473ffffffffffffffffffffffffffffffffffffffff1691505090565b610fb0611641565b60648160ff161115610ff7576040517f08c379a0000000000000000000000000000000000000000000000000000000008152600401610fee9061220a565b60405180910390fd5b80600060146101000a81548160ff021916908360ff1602179055507f8c4d35e54a3f2ef1134138fd8ea3daee6a3c89e10d2665996babdf70261e2c7681604051611041919061225b565b60405180910390a150565b611054611494565b60006002600083815260200190815260200160002090506000600381111561107f5761107e611d12565b5b8160060160009054906101000a900460ff1660038111156110a3576110a2611d12565b5b1480156110ff57508060010160009054906101000a900473ffffffffffffffffffffffffffffffffffffffff1673ffffffffffffffffffffffffffffffffffffffff163373ffffffffffffffffffffffffffffffffffffffff16145b61113e576040517f08c379a0000000000000000000000000000000000000000000000000000000008152600401611135906122c2565b60405180910390fd5b60008160020160009054906101000a900473ffffffffffffffffffffffffffffffffffffffff16905060008260030160009054906101000a900473ffffffffffffffffffffffffffffffffffffffff16905060008060149054906101000a900460ff16905060008060009054906101000a900473ffffffffffffffffffffffffffffffffffffffff169050600060648360646111da91906122e2565b60ff1687600401546111ec9190612317565b6111f69190612388565b90506000606484606461120991906122e2565b60ff16886005015461121b9190612317565b6112259190612388565b90506112768760010160009054906101000a900473ffffffffffffffffffffffffffffffffffffffff16838873ffffffffffffffffffffffffffffffffffffffff166114eb9092919063ffffffff16565b6112b08383896004015461128a91906123b9565b8873ffffffffffffffffffffffffffffffffffffffff166114eb9092919063ffffffff16565b6113258760010160009054906101000a900473ffffffffffffffffffffffffffffffffffffffff168860000160009054906101000a900473ffffffffffffffffffffffffffffffffffffffff16838873ffffffffffffffffffffffffffffffffffffffff16611583909392919063ffffffff16565b6113858760010160009054906101000a900473ffffffffffffffffffffffffffffffffffffffff1684838a6005015461135e91906123b9565b8873ffffffffffffffffffffffffffffffffffffffff16611583909392919063ffffffff16565b60018760060160006101000a81548160ff021916908360038111156113ad576113ac611d12565b5b02179055507fbecbbd7543b68baaaf7e9c3fd12e4719f1f506f4253abef4a6573d0adf3a73ed886040516113e19190611f05565b60405180910390a1505050505050506113f861156a565b50565b600060149054906101000a900460ff1681565b611416611641565b600073ffffffffffffffffffffffffffffffffffffffff168173ffffffffffffffffffffffffffffffffffffffff16036114885760006040517f1e4fbdf700000000000000000000000000000000000000000000000000000000815260040161147f9190611cbb565b60405180910390fd5b611491816116c8565b50565b600061149e6117c7565b905060028160000154036114de576040517f3ee5aeb500000000000000000000000000000000000000000000000000000000815260040160405180910390fd5b6002816000018190555050565b611565838473ffffffffffffffffffffffffffffffffffffffff1663a9059cbb858560405160240161151e9291906123ed565b604051602081830303815290604052915060e01b6020820180517bffffffffffffffffffffffffffffffffffffffffffffffffffffffff83818316178352505050506117ef565b505050565b60006115746117c7565b90506001816000018190555050565b6115ff848573ffffffffffffffffffffffffffffffffffffffff166323b872dd8686866040516024016115b893929190612416565b604051602081830303815290604052915060e01b6020820180517bffffffffffffffffffffffffffffffffffffffffffffffffffffffff83818316178352505050506117ef565b50505050565b60007ff0c57e16840df040f15088dc2f81fe391c3923bec73e23a9662efc9c229c6a00905090565b611635611886565b61163e816118c6565b50565b61164961194c565b73ffffffffffffffffffffffffffffffffffffffff16611667610f70565b73ffffffffffffffffffffffffffffffffffffffff16146116c65761168a61194c565b6040517f118cdaa70000000000000000000000000000000000000000000000000000000081526004016116bd9190611cbb565b60405180910390fd5b565b60006116d261179f565b905060008160000160009054906101000a900473ffffffffffffffffffffffffffffffffffffffff169050828260000160006101000a81548173ffffffffffffffffffffffffffffffffffffffff021916908373ffffffffffffffffffffffffffffffffffffffff1602179055508273ffffffffffffffffffffffffffffffffffffffff168173ffffffffffffffffffffffffffffffffffffffff167f8be0079c531659141344cd1fd0a4f28419497f9722a3daafe3b4186f6b6457e060405160405180910390a3505050565b60007f9016d09d72d40fdae2fd8ceac6b6234c7706214fd39c1cd1e609a0528c199300905090565b60007f9b779b17422d0df92223018b32b4d1fa46e071723d6817e2486d003becc55f00905090565b600061181a828473ffffffffffffffffffffffffffffffffffffffff1661195490919063ffffffff16565b9050600081511415801561183f57508080602001905181019061183d9190612485565b155b1561188157826040517f5274afe70000000000000000000000000000000000000000000000000000000081526004016118789190611cbb565b60405180910390fd5b505050565b61188e61196a565b6118c4576040517fd7e6bcf800000000000000000000000000000000000000000000000000000000815260040160405180910390fd5b565b6118ce611886565b600073ffffffffffffffffffffffffffffffffffffffff168173ffffffffffffffffffffffffffffffffffffffff16036119405760006040517f1e4fbdf70000000000000000000000000000000000000000000000000000000081526004016119379190611cbb565b60405180910390fd5b611949816116c8565b50565b600033905090565b60606119628383600061198a565b905092915050565b6000611974611605565b60000160089054906101000a900460ff16905090565b6060814710156119d157306040517fcd7860590000000000000000000000000000000000000000000000000000000081526004016119c89190611cbb565b60405180910390fd5b6000808573ffffffffffffffffffffffffffffffffffffffff1684866040516119fa9190612523565b60006040518083038185875af1925050503d8060008114611a37576040519150601f19603f3d011682016040523d82523d6000602084013e611a3c565b606091505b5091509150611a4c868383611a57565b925050509392505050565b606082611a6c57611a6782611ae6565b611ade565b60008251148015611a94575060008473ffffffffffffffffffffffffffffffffffffffff163b145b15611ad657836040517f9996b315000000000000000000000000000000000000000000000000000000008152600401611acd9190611cbb565b60405180910390fd5b819050611adf565b5b9392505050565b600081511115611af95780518082602001fd5b6040517f1425ea4200000000000000000000000000000000000000000000000000000000815260040160405180910390fd5b600080fd5b6000819050919050565b611b4381611b30565b8114611b4e57600080fd5b50565b600081359050611b6081611b3a565b92915050565b600060208284031215611b7c57611b7b611b2b565b5b6000611b8a84828501611b51565b91505092915050565b600073ffffffffffffffffffffffffffffffffffffffff82169050919050565b6000611bbe82611b93565b9050919050565b611bce81611bb3565b8114611bd957600080fd5b50565b600081359050611beb81611bc5565b92915050565b600080600080600060a08688031215611c0d57611c0c611b2b565b5b6000611c1b88828901611bdc565b9550506020611c2c88828901611bdc565b9450506040611c3d88828901611bdc565b9350506060611c4e88828901611b51565b9250506080611c5f88828901611b51565b9150509295509295909350565b60008060408385031215611c8357611c82611b2b565b5b6000611c9185828601611bdc565b9250506020611ca285828601611bdc565b9150509250929050565b611cb581611bb3565b82525050565b6000602082019050611cd06000830184611cac565b92915050565b600060208284031215611cec57611ceb611b2b565b5b6000611cfa84828501611bdc565b91505092915050565b611d0c81611b30565b82525050565b7f4e487b7100000000000000000000000000000000000000000000000000000000600052602160045260246000fd5b60048110611d5257611d51611d12565b5b50565b6000819050611d6382611d41565b919050565b6000611d7382611d55565b9050919050565b611d8381611d68565b82525050565b600060e082019050611d9e600083018a611cac565b611dab6020830189611cac565b611db86040830188611cac565b611dc56060830187611cac565b611dd26080830186611d03565b611ddf60a0830185611d03565b611dec60c0830184611d7a565b98975050505050505050565b600060ff82169050919050565b611e0e81611df8565b8114611e1957600080fd5b50565b600081359050611e2b81611e05565b92915050565b600060208284031215611e4757611e46611b2b565b5b6000611e5584828501611e1c565b91505092915050565b611e6781611df8565b82525050565b6000602082019050611e826000830184611e5e565b92915050565b600082825260208201905092915050565b7f43616e6e6f742072656a65637420746869732072657175657374000000000000600082015250565b6000611ecf601a83611e88565b9150611eda82611e99565b602082019050919050565b60006020820190508181036000830152611efe81611ec2565b9050919050565b6000602082019050611f1a6000830184611d03565b92915050565b7f43616e6e6f742063616e63656c20746869732072657175657374000000000000600082015250565b6000611f56601a83611e88565b9150611f6182611f20565b602082019050919050565b60006020820190508181036000830152611f8581611f49565b9050919050565b7f5a65726f2061646472657373206e6f20616c6c6f770000000000000000000000600082015250565b6000611fc2601583611e88565b9150611fcd82611f8c565b602082019050919050565b60006020820190508181036000830152611ff181611fb5565b9050919050565b7f4e487b7100000000000000000000000000000000000000000000000000000000600052601160045260246000fd5b600061203282611b30565b91507fffffffffffffffffffffffffffffffffffffffffffffffffffffffffffffffff820361206457612063611ff8565b5b600182019050919050565b600060e082019050612084600083018a611d03565b6120916020830189611cac565b61209e6040830188611cac565b6120ab6060830187611cac565b6120b86080830186611cac565b6120c560a0830185611d03565b6120d260c0830184611d03565b98975050505050505050565b6000819050919050565b600067ffffffffffffffff82169050919050565b6000819050919050565b600061212161211c612117846120de565b6120fc565b6120e8565b9050919050565b61213181612106565b82525050565b600060208201905061214c6000830184612128565b92915050565b7f547265617375727920616464726573732063616e6e6f74206265207a65726f00600082015250565b6000612188601f83611e88565b915061219382612152565b602082019050919050565b600060208201905081810360008301526121b78161217b565b9050919050565b7f466565206e6f742076616c696400000000000000000000000000000000000000600082015250565b60006121f4600d83611e88565b91506121ff826121be565b602082019050919050565b60006020820190508181036000830152612223816121e7565b9050919050565b600061224561224061223b84611df8565b6120fc565b611b30565b9050919050565b6122558161222a565b82525050565b6000602082019050612270600083018461224c565b92915050565b7f43616e6e6f7420617070726f7665207468697320726571756573740000000000600082015250565b60006122ac601b83611e88565b91506122b782612276565b602082019050919050565b600060208201905081810360008301526122db8161229f565b9050919050565b60006122ed82611df8565b91506122f883611df8565b9250828203905060ff81111561231157612310611ff8565b5b92915050565b600061232282611b30565b915061232d83611b30565b925082820261233b81611b30565b9150828204841483151761235257612351611ff8565b5b5092915050565b7f4e487b7100000000000000000000000000000000000000000000000000000000600052601260045260246000fd5b600061239382611b30565b915061239e83611b30565b9250826123ae576123ad612359565b5b828204905092915050565b60006123c482611b30565b91506123cf83611b30565b92508282039050818111156123e7576123e6611ff8565b5b92915050565b60006040820190506124026000830185611cac565b61240f6020830184611d03565b9392505050565b600060608201905061242b6000830186611cac565b6124386020830185611cac565b6124456040830184611d03565b949350505050565b60008115159050919050565b6124628161244d565b811461246d57600080fd5b50565b60008151905061247f81612459565b92915050565b60006020828403121561249b5761249a611b2b565b5b60006124a984828501612470565b91505092915050565b600081519050919050565b600081905092915050565b60005b838110156124e65780820151818401526020810190506124cb565b60008484015250505050565b60006124fd826124b2565b61250781856124bd565b93506125178185602086016124c8565b80840191505092915050565b600061252f82846124f2565b91508190509291505056fea26469706673582212208e871b9620fe634e7da1296bf64369986ad3f596fba8a1cb59df0016ead9854e64736f6c63430008180033",
  "devdoc": {
    "errors": {
      "AddressEmptyCode(address)": [
        {
          "details": "There's no code at `target` (it is not a contract)."
        }
      ],
      "AddressInsufficientBalance(address)": [
        {
          "details": "The ETH balance of the account is not enough to perform the operation."
        }
      ],
      "FailedInnerCall()": [
        {
          "details": "A call to an address target failed. The target may have reverted."
        }
      ],
      "InvalidInitialization()": [
        {
          "details": "The contract is already initialized."
        }
      ],
      "NotInitializing()": [
        {
          "details": "The contract is not initializing."
        }
      ],
      "OwnableInvalidOwner(address)": [
        {
          "details": "The owner is not a valid owner account. (eg. `address(0)`)"
        }
      ],
      "OwnableUnauthorizedAccount(address)": [
        {
          "details": "The caller account is not authorized to perform an operation."
        }
      ],
      "ReentrancyGuardReentrantCall()": [
        {
          "details": "Unauthorized reentrant call."
        }
      ],
      "SafeERC20FailedOperation(address)": [
        {
          "details": "An operation with an ERC20 token failed."
        }
      ]
    },
    "events": {
      "Initialized(uint64)": {
        "details": "Triggered when the contract has been initialized or reinitialized."
      }
    },
    "kind": "dev",
    "methods": {
      "owner()": {
        "details": "Returns the address of the current owner."
      },
      "renounceOwnership()": {
        "details": "Leaves the contract without owner. It will not be possible to call `onlyOwner` functions. Can only be called by the current owner. NOTE: Renouncing ownership will leave the contract without an owner, thereby disabling any functionality that is only available to the owner."
      },
      "transferOwnership(address)": {
        "details": "Transfers ownership of the contract to a new account (`newOwner`). Can only be called by the current owner."
      }
    },
    "version": 1
  },
  "userdoc": {
    "kind": "user",
    "methods": {},
    "version": 1
  },
  "storageLayout": {
    "storage": [
      {
        "astId": 2051,
        "contract": "contracts/Swapper.sol:Swapper",
        "label": "treasury",
        "offset": 0,
        "slot": "0",
        "type": "t_address"
      },
      {
        "astId": 2053,
        "contract": "contracts/Swapper.sol:Swapper",
        "label": "fee",
        "offset": 20,
        "slot": "0",
        "type": "t_uint8"
      },
      {
        "astId": 2055,
        "contract": "contracts/Swapper.sol:Swapper",
        "label": "requestCount",
        "offset": 0,
        "slot": "1",
        "type": "t_uint256"
      },
      {
        "astId": 2060,
        "contract": "contracts/Swapper.sol:Swapper",
        "label": "requests",
        "offset": 0,
        "slot": "2",
        "type": "t_mapping(t_uint256,t_struct(Request)2044_storage)"
      }
    ],
    "types": {
      "t_address": {
        "encoding": "inplace",
        "label": "address",
        "numberOfBytes": "20"
      },
      "t_enum(Status)2049": {
        "encoding": "inplace",
        "label": "enum Swapper.Status",
        "numberOfBytes": "1"
      },
      "t_mapping(t_uint256,t_struct(Request)2044_storage)": {
        "encoding": "mapping",
        "key": "t_uint256",
        "label": "mapping(uint256 => struct Swapper.Request)",
        "numberOfBytes": "32",
        "value": "t_struct(Request)2044_storage"
      },
      "t_struct(Request)2044_storage": {
        "encoding": "inplace",
        "label": "struct Swapper.Request",
        "members": [
          {
            "astId": 2030,
            "contract": "contracts/Swapper.sol:Swapper",
            "label": "fromAddress",
            "offset": 0,
            "slot": "0",
            "type": "t_address"
          },
          {
            "astId": 2032,
            "contract": "contracts/Swapper.sol:Swapper",
            "label": "toAddress",
            "offset": 0,
            "slot": "1",
            "type": "t_address"
          },
          {
            "astId": 2034,
            "contract": "contracts/Swapper.sol:Swapper",
            "label": "fromToken",
            "offset": 0,
            "slot": "2",
            "type": "t_address"
          },
          {
            "astId": 2036,
            "contract": "contracts/Swapper.sol:Swapper",
            "label": "toToken",
            "offset": 0,
            "slot": "3",
            "type": "t_address"
          },
          {
            "astId": 2038,
            "contract": "contracts/Swapper.sol:Swapper",
            "label": "fromAmount",
            "offset": 0,
            "slot": "4",
            "type": "t_uint256"
          },
          {
            "astId": 2040,
            "contract": "contracts/Swapper.sol:Swapper",
            "label": "toAmount",
            "offset": 0,
            "slot": "5",
            "type": "t_uint256"
          },
          {
            "astId": 2043,
            "contract": "contracts/Swapper.sol:Swapper",
            "label": "status",
            "offset": 0,
            "slot": "6",
            "type": "t_enum(Status)2049"
          }
        ],
        "numberOfBytes": "224"
      },
      "t_uint256": {
        "encoding": "inplace",
        "label": "uint256",
        "numberOfBytes": "32"
      },
      "t_uint8": {
        "encoding": "inplace",
        "label": "uint8",
        "numberOfBytes": "1"
      }
    }
  }
}